:100000000C94FE000C9416010C9416010C949C01A7
:100010000C9416010C9416010C9416010C94160104
:100020000C9416010C9416010C9416010C941601F4
:100030000C9416010C9416010C9416010C941601E4
:100040000C9416010C9416010C9416010C941601D4
:100050000C9416010C9416010C9416010C941601C4
:100060000C9416010C9416010C9416010C941601B4
:100070000C9416010C9416010C9416010C941601A4
:100080000C9416010C9416010C9416010C94160194
:100090000C9416010C9416010C9416010C94160184
:1000A0000C9416010C9416010C9416010C94160174
:1000B0000C9416010C9416010C9416010C94160164
:1000C0000C9416010C9416010C9416010C94160154
:1000D0000C9416010C9416010C9416010C94160144
:1000E0000C9416010C9416010C9416010C94160134
:1000F0000C9416010C9416010C9416010C94160124
:100100000C9416010C9416010C9416010C94160113
:100110000C9416010C9416010C9416010C94160103
:100120000C9416010C9416010C9416010C941601F3
:100130000C9416010C9416010C9416010C941601E3
:100140000C9416010C9416010C9416010C941601D3
:100150000C9416010C9416010C9416010C941601C3
:100160000C9416010C9416010C9416010C941601B3
:100170000C9416010C9416010C9416010C941601A3
:100180000C9416010C9416010C9416010C94160193
:100190000C9416010C9416010C9416010C94160183
:1001A0000C9416010C9416010C9416010C94160173
:1001B0000C9416010C9416010C9416010C94160163
:1001C0000C9416010C9416010C9416010C94160153
:1001D0000C9416010C9416010C9416010C94160143
:1001E0000C9416010C9416010C9416010C94160133
:1001F0000C9416010C9416010C94160111241FBEC8
:10020000CFEFCDBFDFE3DEBF00E00CBF18BE19BEED
:100210001ABE1BBE20E2A0E0B0E201C01D92A130D8
:10022000B207E1F70E94D6010C949B020C940000E7
:10023000CF93DF93CDB7DEB780E696E028E0FC01F0
:10024000258380E696E028E0FC01218380E696E0A5
:1002500024E0FC01228380EA99E025E0FC0126836A
:1002600080EA99E020EAFC01278380EA99E023E014
:10027000FC01258380EA99E028E1FC012483000049
:10028000DF91CF910895CF93DF931F92CDB7DEB763
:100290008983000080EA99E0FC018181882F90E049
:1002A00080729927892BB1F380EA99E02981FC01BA
:1002B000208300000F90DF91CF910895CF93DF93BB
:1002C000CDB7DEB761E082E10E945F0264E282E1C5
:1002D0000E945F0260EE88E10E945F0260E580E1BB
:1002E0000E945F0261E08DE00E945F020000DF91EA
:1002F000CF910895CF93DF93CDB7DEB780E496E03A
:1003000020E4FC01228380E496E020E4FC012387C2
:1003100080E496E022E0FC01268B80E496E024E075
:10032000FC01218782EA90E021E0FC01208378949F
:100330000000DF91CF9108951F920F9200903F002F
:100340000F921124009038000F9210923800009004
:100350003A000F9210923A0000903B000F921092D8
:100360003B008F939F93EF93FF93CF93DF93CDB792
:10037000DEB780E496E0FC01118681E080930020E6
:100380000000DF91CF91FF91EF919F918F910F909E
:1003900000923B000F9000923A000F9000923800BC
:1003A0000F9000923F000F901F901895CF93DF930E
:1003B000CDB7DEB70E947A010E9415020E945E014D
:1003C0000E94180188E20E947D028AE20E947D025A
:1003D0008CE20E947D02809100208823E1F388E274
:1003E0000E947D020E94430189E20E947D020E94D8
:1003F00043018AE20E947D020E9443018BE20E9437
:100400007D020E9443018CE20E947D020E94430112
:100410008DE20E947D020E9443011092002080E440
:1004200096E024E0FC012187D6CFCF93DF93CDB7B0
:10043000DEB780EA96E020E9FC01258380EA96E0B9
:1004400020EBFC01218380EA96E020E4FC0122837A
:1004500080EC9BE02CE5FC0120830000DF91CF9134
:100460000895CF93DF931F92CDB7DEB7898380ECD9
:100470009BE02981FC012383000080EC9BE0FC01D0
:1004800082818823D4F700000F90DF91CF910895E7
:10049000CF93DF93CDB7DEB780EC9BE027E3FC0181
:1004A0002383000080EC9BE0FC0182818823D4F749
:1004B00080EC9BE0FC018381DF91CF910895CF9385
:1004C000DF931F921F92CDB7DEB789836A8380EADC
:1004D00096E020E1FC01268389810E9431028A8115
:1004E0000E94310280EA96E020E1FC0125830000B1
:1004F0000F900F90DF91CF910895CF93DF931F92CC
:100500001F92CDB7DEB78A8380EA96E020E1FC0136
:1005100026838A8180680E9431020E944802898372
:1005200080EA96E020E1FC01258389810F900F90FD
:0A053000DF91CF910895F894FFCFFA
:00000001FF
